:020000040800F2
:1000000038060020450100080F1A0008BD17000837
:100010000D1A00085F0200086920000800000000B7
:10002000000000000000000000000000151A000899
:100030006102000800000000131A0008171A0008E7
:100040005F0100085F0100085F0100085F01000810
:100050005F0100085F0100085F0100085F01000800
:100060005F0100085F0100085F0100085F010008F0
:100070005F0100085F0100085F0100085F010008E0
:100080005F0100085F0100085F0100085F010008D0
:100090005F0100085F0100085F0100085F010008C0
:1000A0005F0100085F0100085F0100085F010008B0
:1000B0005F010008B11A00085F0100085F01000835
:1000C0005F0100085F0100085F0100085F01000890
:1000D0005F0100085D2000085F0100085F01000863
:1000E0005F0100085F0100085F0100085F01000870
:1000F0005F0100085F0100085F0100085F01000860
:100100005F0100085F010008BD1A00085F010008D8
:100110005F0100085F010008C91A0008D51A00082D
:100120005F0100085F0100085F0100085F0100082F
:10013000DFF80CD000F072F80048004741240008B6
:10014000380600200648804706480047FEE7FEE7DD
:10015000FEE7FEE7FEE7FEE7FEE7FEE7FEE7FEE777
:10016000691A000831010008202A04DB203A21FA2C
:1001700002F00021704721FA02F3D040C2F12002C0
:100180009140084319467047D2B201E000F8012BB4
:10019000491EFBD270470022F6E710B513460A4607
:1001A00004461946FFF7F0FF204610BD421C10F828
:1001B000011B0029FBD1801A70472DE9F05F05462D
:1001C000002092469B4688460646814640241BE016
:1001D0002846414647462246FFF7C6FF53465A4641
:1001E000C01A914110D311461846224600F028F853
:1001F0002D1A67EB01084F4622460120002100F02E
:100200001FF817EB00094E41201EA4F10104DFDCAA
:10021000484631462A464346BDE8F09F064C074D06
:1002200006E0E06840F0010394E8070098471034C6
:10023000AC42F6D3FFF780FF7C2600089C2600081E
:10024000202A04DB203A00FA02F100207047914096
:10025000C2F1200320FA03F3194390407047FEE7F0
:10026000704770472DE9F05F90F8211000240229B3
:1002700003D004218163012485E001680A6822F02B
:100280000E020A6001680A6822F001020A603F4E0D
:100290003E4FB215DFF8F4C0DFF8F090DFF8ECA0C5
:1002A000DFF8E8B0DFF8E4E00168783F13011502F9
:1002B000ACF1640CA9F15009AAF13C0AABF1280B8E
:1002C000AEF1140E4FF48018B14227D9B9420ED0C6
:1002D000614512D049451DD0514518D0594518D017
:1002E000714501D1424615E0294EB14201D10122AA
:1002F00010E0274E1436B14201D110220AE0244EFC
:100300002836B14206D0224A3C32914201D11A46E7
:1003100000E02A461E49091F0A602BE0B94213D0AB
:10032000614517D0494522D051451DD059451DD0B2
:10033000714501D142461AE0B14202D14FF08072BC
:1003400015E0134EB14201D1012210E0104E1436D7
:10035000B14201D110220AE00D4E2836B14206D03A
:100360000B4A3C32914201D11A4600E02A46074925
:1003700080394A60012180F82110002180F8201086
:10038000416B01B188472046BDE8F09F80000240E4
:10039000080402402DE9F84FDFF8C891002409F164
:1003A000040A0AF1040B23460F270BF1040ED1E0D7
:1003B0000125A54006EA0502AA4276D1DFF8A8C1C8
:1003C0004E68A6EB0C0866452BD00DDC032E34D00E
:1003D00005DC36B3012E19D0022E2FD11BE0112ED1
:1003E00016D0122E2AD119E0B8F5881F19D006DCD4
:1003F000B8F5803F15D0B8F5801F1FD111E0B8F5D2
:10040000001F0ED0B8F5041F18D10AE0CB6815E024
:10041000CB681B1D12E0CB6808330FE0CB680C33B0
:100420000CE08B682BB1012B4FF0080303D0456122
:1004300004E0042302E0056100E00023FF2A01D864
:10044000064601E000F104064FEA840501D9A5F152
:100450002005D6F8008007FA05FC28EA0C0803FA04
:1004600005F548EA0508C6F800804D68ED0070D52E
:100470003E4DAE6946F00106AE61AD6924F003065B
:1004800005F0010500953A4D06EB050CDCF8085027
:10049000A607360F07FA06F825EA0805DFF8D48024
:1004A000404503D14FF0000825E052E0DFF8C88056
:1004B000404502D14FF001081DE0DFF8C080404503
:1004C00002D14FF0020816E0DFF8B480404502D1B7
:1004D0004FF003080FE0DFF8AC80404502D14FF049
:1004E000040808E0DFF8A080404502D14FF005087D
:1004F00001E04FF0060808FA06F848EA0508CCF8CB
:1005000008804D68D9F80060ED034D4601D51643CB
:1005100000E096432E604D68DAF80060AD03554662
:1005200001D5164300E096432E604D68DBF800606D
:10053000ED025D4601D5164300E096432E604D68FE
:10054000DEF80060AD02754601D5164300E0964323
:100550002E60641C0A681646E2407FF429AFBDE8AD
:10056000F88F00000004014000001110001002404C
:100570000000014000080140000C01400010014053
:100580000014014000180140001C01408068084030
:1005900000D001207047C2680A4201D04161704713
:1005A000016170470AB1016170470904FBE700006F
:1005B00001488068704700000C00002002488168F4
:1005C00002781144816070470C000020074810B584
:1005D000016841F010010160032000F075F800206F
:1005E00000F006F800F024F8002010BD00200240C2
:1005F00070B50D4D04464FF47A712878B1FBF0F0D8
:100600000A490968B1FBF0F000F00CFB48B9102C66
:1006100007D200222146501E00F036F800206C6000
:1006200070BD012070BD00000C00002018000020EB
:100630000C4808B5816941F001018161816901F0CF
:1006400001010091C16941F08051C161C06900F0B0
:10065000805000900448416821F0E06141F0007151
:10066000416008BD0010024000000140002809DB85
:1006700000F01F02012191404009800000F1E020BC
:10068000C0F8001170470000F0B40E4B1B680C4618
:10069000C3F30223C3F10705042D00D90425191D56
:1006A000072901D2002300E0DB1E012606FA05F12E
:1006B000491E214099409E40761E16403143F0BCB1
:1006C00001F0F8BC0CED00E0064900F007020868F4
:1006D0004FF6FF03184040EA0220034A1043086027
:1006E000704700000CED00E00000FA0570470000C4
:1006F0002DE9F0470F46050061D0434E306800F009
:100700000700B84209D2306820F007003843306053
:10071000306800F00700B84251D128683B4C81078F
:1007200012D5400703D5606840F4E0606060287827
:10073000000703D5606840F4605060606068A96895
:1007400020F0F000084360602878C00728D068686F
:10075000012810D02168022810D0890700292EDA3C
:10076000616821F0030101436160FFF721FF8046CA
:1007700041F288390DE021688903EFE78901EDE74F
:10078000FFF716FFA0EB0801494502D90320BDE899
:10079000F0876068696800F00C00B0EB810FEFD162
:1007A000306800F00700B8420BD9306820F007002D
:1007B00038433060306800F00700B84201D00120B3
:1007C000E5E72878400705D56068E96820F4E0602F
:1007D000084360602878000706D56068296920F41E
:1007E000605040EAC100606000F03EF86168084A6D
:1007F000C1F30311515CC84006490860064800680F
:10080000FFF7F6FE0020C2E7002002400010024081
:100810006426000818000020100000200149012073
:10082000C8647047000042420448054900684968AE
:10083000044AC1F30221515CC840704718000020EF
:100840000010024074260008044805490068496801
:10085000044AC1F3C221515CC8407047180000200F
:10086000001002407426000812A185B00FC98DE85F
:100870000F0014A0144A006804905168134801F056
:100880000C03042B10D0082B0ED1C1F38343C903F2
:100890001DF803000AD5516804AAC1F34041515C18
:1008A0000A4A5043B0FBF1F005B07047084948438D
:1008B000FAE7000002030405060708090A0B0C0DFD
:1008C0000E0F1010010200000010024000127A000A
:1008D00000093D0010B5044CA068000603D5FFF7E1
:1008E00005FF8020A07210BD001002402DE9F84FD6
:1008F000040070D02078C04DC00749D06868C0F3AC
:100900008100012807D06868C0F38100022809D15E
:100910006868C00306D52868800339D56068002858
:10092000E7D035E06068B0F5803F0BD010B1B0F58E
:10093000A02F11D0286820F480302860286820F487
:10094000802002E0286840F480302860606890B120
:10095000FFF72EFE06460AE0286840F48020286053
:10096000F0E700BFFFF724FE801B642873D82868D7
:100970008003F7D50CE0FFF71BFE064605E000BF3D
:10098000FFF716FE801B6428F0D828688003F7D490
:1009900020789A4E80074FF001094FF0000839D5B2
:1009A000686810F00C0F07D06868C0F38100022857
:1009B00009D16868C00306D42868800714D5206967
:1009C000012808D110E02069B0B1C6F80090FFF707
:1009D000EFFD074605E00AE1FFF7EAFDC01B02282C
:1009E000C4D828688007F7D52868616920F0F80026
:1009F00040EAC10028600DE0C6F80080FFF7D8FD8E
:100A0000074604E0FFF7D4FDC01B022823D828685E
:100A10008007F7D4207800072CD57948A169D9B18F
:100A2000C0F80090FFF7C4FD074604E0FFF7C0FDE3
:100A3000C01B02280FD8686A8007F7D571484FF4A9
:100A4000FA510068B0FBF1F0009000BF0098411E21
:100A50000091FAD20EE080E0C0F80080FFF7A8FD18
:100A6000074604E0FFF7A4FDC01B022875D8686A9A
:100A70008007F7D42078400760D5E8690027C000D8
:100A800008D4E86940F08050E861E869012700F087
:100A9000805000905C480168C90513D40168834602
:100AA00041F480710160FFF783FD824606E000BFDC
:100AB000FFF77EFDA0EB0A0064284ED8DBF80000AB
:100AC000C005F5D5E06801280AD008B1052813D083
:100AD000286A20F001002862286A20F0040002E061
:100AE000286A40F001002862E06841F2883B98B132
:100AF000FFF75EFD82460BE0286A40F004002862A2
:100B0000EEE700BFFFF754FDA0EB0A0159455AD8A4
:100B1000286A8007F6D50CE0FFF74AFD824605E01B
:100B2000FFF746FDA0EB0A0159454CD8286A80071B
:100B3000F6D41FB1E86920F08050E861E06988B31D
:100B40006968C1F38101022944D00228C6F8608097
:100B500004D0FFF72DFD044638E034E0FFF728FD10
:100B6000074604E0FFF724FDC01B02282BD82868A5
:100B70008001F7D4206AB0F5803F05D16868A1688C
:100B800020F4003008436860D4E90801084369682C
:100B900021F4741108436860C6F86090FFF708FDFF
:100BA000044606E025E000BFFFF702FD001B022817
:100BB00009D828688001F7D51BE000BFFFF7F8FCD3
:100BC000001B022802D90320BDE8F88F28688001A5
:100BD000F4D40EE00128F7D06868226A00F480316E
:100BE000914204D1616A00F47010884201D0012062
:100BF000EAE70020E8E7000000100240000042425F
:100C00008004424218000020007000404FF0E021B4
:100C10000428086903D020F004000861704740F000
:100C20000400FAE710B5401EB0F1807F01D3012027
:100C300010BD4FF0E02460610F21601701F03AFA17
:100C40000020A06107202061002010BD7047704780
:100C500070B590F83C20012A19D0012400F83C4FCF
:100C60000222427050F83C3C5A689D6822F070069F
:100C70000A684968324325F0800529435A6050F8D4
:100C80003C2C9160447000210170084670BD022028
:100C900070BD10B5040003D094F83D0010B107E01A
:100CA000012010BD002084F83C00204600F00CF824
:100CB000022084F83D00211D206800F011FF012072
:100CC00084F83D00002010BD00B585B000210091E2
:100CD000019102910391264A01682648914220D150
:100CE000C16941F00801C161C16901F008010491C5
:100CF000816941F0040181618069694600F0040066
:100D000004900120009002200290032003901A48D2
:100D1000FFF740FB002202213220FFF7B5FC322012
:100D200010E0164A914211D1C16941F01001C16130
:100D3000C069002200F01000049011463620FFF731
:100D4000A3FC3620FFF792FC05B000BD0C4A91428F
:100D5000FAD1C16941F02001C161C069002200F0EF
:100D60002000049011463720FFF78EFC3720E9E77A
:100D7000000C00400010024000080140001000403C
:100D8000001400400168CA6842F00102CA600068AD
:100D9000816801F00701062903D0016841F00101D3
:100DA00001600020704770B5044690F83C000128AF
:100DB00017D0012584F83C50022084F83D002068BB
:100DC000826822F0770222F47F428260086850280D
:100DD00030D00DDC20284DD005DC98B310283BD155
:100DE00048E0022070BD302844D0402834D139E09A
:100DF000602828D0702806D0B0F5805F2CD0B0F5E0
:100E0000005F29D10AE0CB68D1E90121206800F018
:100E1000BAFE2068816841F0770109E0CB68D1E92A
:100E20000121206800F0AFFE2068816841F4804114
:100E3000816011E0CA684968206800F079FF50219C
:100E4000206807E016E0CA684968206800F0B8FF2B
:100E50006021206800F0A1FE84F83D50002084F855
:100E60003C0070BDCA684968206800F061FF4021FD
:100E70002068EFE7226801461046EBE770B51E4C8C
:100E80002078010612D41D4D410610D540F0800097
:100E900020700021284600F0D5FA60802868016A99
:100EA00021F00A0101622868016A016270BD002117
:100EB0006180402020702868026A41F211131A42B2
:100EC00007D1026A9B101A4203D1026822F0010284
:100ED0000260286841622868016A21F00A01016203
:100EE0002868016A41F0020101622868016841F046
:100EF0000101016070BD00000800002060000020BA
:100F00002DE9F041044690F83C000D4601283BD005
:100F1000012684F83C60022084F83D009AB3042A3C
:100F200044D02068082A53D0D5E90027E968036A2D
:100F300023F480530362D0F81CC0036A2CF4407C75
:100F40004CEA07274FF6FF7C27F470470CEA013183
:100F50003943770323F4005307EA02321A43C1618D
:100F600002622068C16921F44061C1612068C169E1
:100F7000AA6841EA0221C16184F83D60002084F83A
:100F80003C00BDE8F08101E00220FAE7D5E900125B
:100F9000EB68206800F0DEFE2068816921F00C011A
:100FA000816120688169AA6811430FE0D5E90012C8
:100FB000EB68206800F016FF2068816921F4406129
:100FC000816120688169AA6841EA02218161D3E7D1
:100FD000D5E9002C2F7B016A21F480710162C1697F
:100FE000036A21F0030141EA0C0121F0F00C3907FA
:100FF0004FF400774CEA116123F4007307EA0222F0
:101000001A43C16102622068C16921F00C01C1610B
:101010002068C169AA681143ADE710B5040003D088
:1010200094F83D0010B107E0012010BD002084F8C5
:101030003C00204600F00CF8022084F83D00211D01
:10104000206800F04DFD012084F83D00002010BD17
:10105000704710B50268044631B1042908D0082948
:101060001AD00C2908D11BE0D06840F0020002E041
:10107000D06840F00400D0600122206800F076FDC6
:101080002068816801F00701062903D0016841F05A
:1010900001010160002010BDD06840F00800EAE7BF
:1010A000D06840F01000E6E770B5044600680169BA
:1010B0004FF00005C943890715D4C168C9438907A2
:1010C00011D4E91E01610120207720688069800722
:1010D000204602D0FFF7D2FE04E000F0C9F8204617
:1010E00000F068F9257720680169C943490717D4DA
:1010F000C168C943490713D46FF00401016102209C
:1011000020772068806910F4407F204602D0FFF7E6
:10111000B5FE04E000F0ACF8204600F04BF925776E
:1011200020680169C943090716D4C168C943090782
:1011300012D46FF008010161042020772068C06993
:101140008007204602D0FFF799FE04E000F090F8F7
:10115000204600F02FF9257720680169C943C906A8
:1011600017D4C168C943C90613D46FF010010161D7
:10117000082020772068C06910F4407F204602D004
:10118000FFF77CFE04E000F073F8204600F012F94F
:10119000257720680169C943C90708D1C168C943D7
:1011A000C90704D1891E0161204600F027F9206893
:1011B0000169C943090609D4C168C943090605D4B0
:1011C0006FF0800101612046FFF740FD2068016952
:1011D000C943490609D4C168C943490605D46FF01B
:1011E00040010161204600F042F920680169C943CD
:1011F00089060BD4C168C943890607D46FF0200162
:1012000001612046BDE87040FFF721BD70BD0000C0
:1012100000B585B000210091019102910391006811
:101220000F4988421AD10F48816941F00801816154
:101230008069694600F00800049020200090022098
:10124000019003900848FFF7A5F80848416821F489
:10125000406141F0E06141F40061416005B000BDD2
:101260000004004000100240000C0140000001405A
:10127000704770B5044690F83C000D4601280DD02B
:10128000012684F83C60022084F83D0042B1042A23
:1012900018D0082A2AD00C2A4DD139E0022070BD7E
:1012A000206800F083FC2068816941F008018161B9
:1012B0002068816921F004018161206881692A69BF
:1012C000114311E0206800F0A1FC2068816941F41D
:1012D000006181612068816921F4806181612068F9
:1012E00081692A6941EA0221816124E0206800F0D5
:1012F000C3FC2068C16941F00801C1612068C1696F
:1013000021F00401C1612068C1692A69114311E01B
:10131000206800F0E5FC2068C16941F40061C1610A
:101320002068C16921F48061C1612068C1692A69AE
:1013300041EA0221C16184F83D60002084F83C004C
:1013400070BD10B5040003D094F83D0010B107E063
:10135000012010BD002084F83C00204600F00CF86D
:10136000022084F83D00211D206800F0B9FB012017
:1013700084F83D00002010BD08B500680B49884284
:1013800012D10B48C16941F00201C161C06900225C
:1013900000F00200009011461D20FFF775F9BDE82E
:1013A00008401D20FFF762B908BD0000000400409E
:1013B000001002407047000010B50446006801228A
:1013C00000F0D4FB0B492068884202D00A498842C9
:1013D00003D1416C41F4004141642068816801F00F
:1013E0000701062903D0016841F0010101600020D6
:1013F00010BD0000002C01400034014002680E487E
:1014000082420AD10D490878030606D4430604D562
:10141000C3439B0607D0401C08700948824209D18B
:10142000012000F0C1BF40F0800008704FF6FF704F
:101430004880F2E770470000000C004008000020E0
:10144000001000400246002041B1042909D00829BB
:101450000AD00C2901D11068006C70471068406BED
:1014600070471068806B70471068C06B704770479A
:101470007047000070B5026804461068D16853696F
:1014800010F00F0F50D003F0010501F490763543B2
:101490005DD0C20705D0CA0503D5E26B42F0010258
:1014A000E263420705D5DA0703D0E26B42F002029D
:1014B000E263820705D5DA0703D0E26B42F004024B
:1014C000E263020705D5DA0703D0E26B42F00802B7
:1014D000E263E26B002A33D0800604D5880602D589
:1014E000204600F0B0FC20684069E16BC0F380103A
:1014F000090700D428B3204600F097FC2068416912
:1015000049061AD5416921F040014161606BA0B1E3
:101510001B494163606BFEF7A5FE002810D0606B8D
:10152000416BBDE870400847830610D58B060ED589
:101530002046BDE8704000F086BC2046FFF798FFCB
:1015400070BD2046FFF794FF0020E06370BD0306E6
:1015500006D50B0604D52046BDE8704000F01ABD44
:101560004006F3D54806F1D5D168204621F0400168
:10157000D160202184F8391000F01FF970BD0000FF
:101580001B1E000870B5040004D094F83900002533
:1015900010B106E0012070BD84F83850204600F0FC
:1015A00023F8242084F839002068C16821F4005110
:1015B000C160204600F092FC2068016921F490414E
:1015C00001612068416921F02A0141612068C168F8
:1015D00041F40051C160E563202084F8390084F8AB
:1015E0003A00002070BD000030B585B000240094A2
:1015F0000194029403940068184988422CD1184839
:10160000816941F480418161816901F480410491E3
:10161000816941F0040181618069124D00F004008C
:1016200004904FF40070009002200190032003907A
:1016300069462846FEF7AEFE2815CDE90004694646
:1016400028460294FEF7A6FE002211462520FFF749
:101650001BF82520FFF70AF805B030BD003801401F
:10166000001002400008014090F83A30202B22D1AF
:10167000F9B1F2B190F83830012B1CD0816282852B
:10168000C2850021C163222280F83A2080F83810F8
:101690000168CA6842F48072CA6001684A6942F00F
:1016A00001024A610068C16841F02001C160002068
:1016B00070470120704702207047000000680E4903
:1016C000884218D10D4801460278D1F8CC100A2A78
:1016D00006D0431CCA5450F8CC1F491C016004E0DA
:1016E000C0F8D0100021C0F8CC1004490122A1F1AB
:1016F0004000FFF7B9BF704700380140600100208B
:101700002DE9F843044690F839001F4616460D4669
:10171000202850D1A5B19EB194F8380001284AD0B4
:10172000012084F838004FF00008C4F83C802120E4
:1017300084F83900FEF73CFFA6848146E68426E063
:101740000120BDE8F883E08C401EE084A0684B4691
:10175000B0F5805F4FF000024FF080012046009707
:1017600003D000F048FCE8B90DE000F044FCC8B933
:1017700028882168C0F308004860206908B16D1C02
:1017800005E0AD1C03E0216815F8010B4860E08C12
:101790000028D8D14B46002240212046009700F077
:1017A0002AFC08B10320CCE7202084F8390084F813
:1017B00038800020C5E70220C3E77047FEE700003D
:1017C00070B586B000241B480094019402940394E1
:1017D000816941F040018161816901F0400104911A
:1017E000816941F004018161816901F00401049182
:1017F000816941F00801816180690F4E00F00800A5
:101800000490002220213046FEF7CCFE1C2001254A
:101810008DE8310069463046FEF7BCFD2020CDE959
:1018200000050220CDE9024069463046FEF7B2FDD0
:1018300006B070BD001002400018014010B58AB01B
:10184000002407941C2168460894FEF7A4FC17485E
:101850001549016040F2F311C0E901144721C0E9C4
:1018600003148461FFF76DFD08B1FEF7FAFC0794DD
:1018700007A90E480894FFF7EBF908B1FEF7F1FC51
:101880006020CDE9000402200290042269460494FD
:101890000648FFF7EEFC08B1FEF7E3FC0348FFF74C
:1018A000B7FC0AB010BD000000040040200000207A
:1018B00010B58AB000242348049405940694079434
:1018C000089409940094019402941D4903940160C2
:1018D0000721C0E901144FF6FF71C0E903148461C8
:1018E000FFF7D7F908B1FEF7BCFC4FF48050049025
:1018F00004A91448FFF757FA08B1FEF7B2FC1148E3
:10190000FFF78BFB08B1FEF7ACFC2020CDE9080403
:1019100008A90C48FFF79CF908B1FEF7A2FC0120CA
:10192000CDE9004002940022694606480394FFF77F
:10193000E7FA002801D0FEF794FC0AB010BD0000C1
:10194000000C0040600000201CB500240E480094EC
:101950000C49019401604F21C0E90114C721846141
:10196000C160FFF796F908B1FEF77BFC0094694669
:1019700005480194FFF76CF9002801D0FEF771FCCF
:101980001CBD000000100040A00000201CB5002479
:101990000F4800940D490194016040F2E731C0E91D
:1019A000011440F2AF418461C160FFF772F908B1E0
:1019B000FEF757FC0094694605480194FFF748F983
:1019C000002801D0FEF74DFC1CBD000000140040B3
:1019D000E00000200C4810B50A4901604FF4E131E5
:1019E0004160002181600C22C160C0E90412816164
:1019F000C161FFF7C7FD002803D0BDE81040FEF726
:101A000030BC10BD0038014020010020FEE7FEF789
:101A100061BF70477047FEF7D1BD30B58FB0282148
:101A20006846FEF7B8FB14210AA8FEF7B4FB0121B3
:101A3000080400240491CDE90010CDE908040294C3
:101A4000022507956846FEF751FF0F20CDE90A05EC
:101A50008020CDE90C0400210AA80E94FEF748FE70
:101A6000FEF7DCFE0FB030BD0D48016841F001010A
:101A7000016041680B4A1140416001680A4A114007
:101A80000160016821F480210160416821F4FE01B8
:101A900041604FF41F0181600449C0030860704732
:101AA000001002400000FFF8FFFFF6FE08ED00E026
:101AB0000148FFF7F9BA0000200000200148FFF7B5
:101AC000F3BA0000600000200148FFF7EDBA000003
:101AD000A00000200148FFF7E7BA0000E000002066
:101AE000F0B502681C4B1D4D1D4E1E4F1E4C4FF095
:101AF000804C984209D0A04207D0604505D0A8424A
:101B000003D0B04201D0B84204D122F0700E4A682E
:101B100042EA0E02984209D0A04207D0604505D0A3
:101B2000A84203D0B04201D0B84203D122F440759C
:101B3000CA682A434D6922F080022A4302608A68FB
:101B4000C2620A688262984201D0A04201D109694A
:101B5000016301214161F0BD002C014000040040FF
:101B600000080040000C00400034014010B501F0B6
:101B70001F030121046A99408C430462016A9A4060
:101B80001143016210BD10B5846842EA032224F4B7
:101B90007F440A432243826010BD826822F07002B3
:101BA0000A4342F00701816070470000F0B5026A05
:101BB00022F001020262036A42688469124E24F034
:101BC00073050C682C4323F002058B682B430D4DE5
:101BD000A84201D0B04205D123F00807CB683B43AF
:101BE00023F00403A84201D0B04205D14D6922F48C
:101BF000407215438A692A4342608461496841639F
:101C00000362F0BD002C014000340140F0B5026ACF
:101C100022F010020262026A436884690D6824F4AB
:101C2000E64444EA05248D6822F0200242EA0512C7
:101C30000F4D104EA84201D0B04206D1CF6822F01D
:101C4000800242EA071222F04002A84201D0B042CC
:101C500007D14D6923F4406343EA85038D6943EA64
:101C6000850343608461496881630262F0BD0000BE
:101C7000002C014000340140F0B5026A22F4807269
:101C80000262026A4368C46922F4007224F0730598
:101C90000C68124E2C438D6842EA05220E4DA84274
:101CA00001D0B04206D1CF6822F4006242EA072296
:101CB00022F48062A84201D0B04207D14D6923F4DA
:101CC000405343EA05138D6943EA05134360C46139
:101CD0004968C1630262F0BD002C0140003401403C
:101CE00030B5026A22F480520262046A4268C36913
:101CF0000D6823F4E64343EA05238D6824F4005479
:101D000044EA0534084DA84202D0084DA84204D147
:101D10004D6922F4804242EA85124260C3614968FB
:101D20000164046230BD0000002C01400034014019
:101D300010B5036A046A24F001040462846924F083
:101D4000F00444EA021423F00A020A4384610262A6
:101D500010BD000070B5046A24F0010404628469B7
:101D6000056A124EB0420ED0114EB0420BD0B0F107
:101D7000804F08D00F4EB04205D00F4EB04202D077
:101D80000E4EB04203D124F00304144301E044F0AA
:101D900001041A0724F0F00444EA126225F00A0351
:101DA00001F00A0119438261016270BD002C0140FB
:101DB000003401400004004000080040000C0040D6
:101DC00010B5036A23F0100303628369046A23F4E5
:101DD000704343EA023224F0A00343EA0111826116
:101DE000016210BD30B5046A24F0100404628469F5
:101DF000056A24F4407444EA022222F470444FF647
:101E0000FF7202EA03322243A02425F0A00304EA71
:101E1000011119438261016230BD10B5406A002191
:101E2000C185C184FFF724FB10BD0168CA6822F494
:101E30009072CA6001684A6922F001024A61202159
:101E400080F83A10704710B590F83A10222901D066
:101E5000022010BD8168B1F5805F11D001690029B1
:101E600001681FD0496801F07F03816A4A1C8262C1
:101E70000B70C18D491E0904090CC18518D02BE0D7
:101E80000269816A002A0268526805D0D2B20A80CB
:101E9000816A491C8162ECE7C2F308020A80816A08
:101EA000891CF7E74A68816A4B1C83620A70E0E785
:101EB0000168CA6822F02002CA600168CA6822F478
:101EC0008072CA6001684A6922F001024A612021D9
:101ED00080F83A10FFF7F2FB002010BD2DE9F04129
:101EE000044600680169E26821F440511143016130
:101EF0002169A0680843616908432168CA6841F202
:101F00000C639A430243CA6020684169A26921F4C4
:101F10004071114341611E49206864253226884280
:101F200002D1FEF791FC01E0FEF77EFC00EBC00160
:101F300001EB001160686FF018078000B1FBF0F250
:101F4000B2FBF5F2B1FBF0F37A4303EB8202B1FB93
:101F5000F0F306EB0212B2FBF5F2B3FBF5F302F07D
:101F6000F00202EB0312B1FBF0F3B1FBF0F0B0FBB7
:101F7000F5F0784303EB800006EB0010B0FBF5F0C2
:101F8000216800F00F0010448860BDE8F081000077
:101F90000038014090F83910212901D00220704703
:101FA0008168B1F5805F016A0BD04A1C0262026849
:101FB00009785160C18C491E0904090CC1840ED0F6
:101FC00017E009880268C1F308015160016900291E
:101FD000016A02D0491C0162ECE7891CFBE7016839
:101FE000CA6822F08002CA600068C16841F04001FE
:101FF000C160002070472DE9F041984617460E4613
:102000000446069D1DE0681C1BD02DB1FEF7D0FADA
:10201000A0EB0800A84214D92068C16821F4D0714F
:10202000C1602068416921F001014161202084F8EC
:10203000390084F83A00002084F838000320BDE815
:10204000F0812068006836EA000004D00020B84221
:10205000D9D00020F3E70120F9E700000148FFF79D
:1020600009BA000020010020FEE700000FB4054B74
:1020700010B503A9044A029800F03CF810BC5DF8C2
:1020800014FB0000912300081C0000200FB4084B33
:1020900010B504A902AA039800F02CF8044602A97E
:1020A000002000F03DF9204610BC5DF814FB000054
:1020B000212300080907090E002804DB00F1E020B5
:1020C00080F80014704700F00F0000F1E02080F865
:1020D000141D704702E008C8121F08C1002AFAD177
:1020E00070477047002001E001C1121F002AFBD198
:1020F000704700002DE9FF4F8BB09A460F4604460B
:10210000002606E025280BD052460D999047641C06
:10211000761C20780028F5D10FB03046BDE8F08F4E
:102120000025A94601227D4900E0054314F8013F3E
:10213000203B02FA03F00842F7D120782E2817D16D
:1021400014F8010F45F004052A280ED06FF02F0275
:102150002078A0F1300109290AD809EB890102EBA6
:10216000410100EB0109641CF2E757F8049B641C71
:1021700020786C280DD004DC4C2812D06A2811D1AC
:1021800004E074280DD07A280CD10AE045F400153B
:1021900007E0617845F48015814202D1641C05F5A1
:1021A0008015641C207869283ED006DC0028B3D056
:1021B00063280BD0642804D136E0732810D075282A
:1021C0005CD052460D999047761CA5E017F8040B99
:1021D0008DF8000000208DF80100E846012003E0A2
:1021E00057F8048B4FF0FF3069074FF0000501D41A
:1021F0000AE06D1C4D450DDA8542FADB18F8051032
:102200000029F6D106E06D1C8542FCDB18F80510AC
:102210000029F8D12E4404E018F8010B52460D991C
:1022200090476D1EF8D277E000200A90C5F3025067
:102230004FF00A0B02280CD001CFC117021E71F11A
:1022400000020CDA0023D0EB030063EB01012D2226
:1022500008E0FF1D27F00707F7E80201EEE72A056F
:1022600004D52B228DF82420012203E0EA070FD0A9
:102270002022F7E70DF12008089218E000200A90CC
:10228000C5F302504FF00A0B022803D001CF002102
:102290000022EFE7FF1D27F00707F7E80201F7E745
:1022A0005A460A9BFDF789FF303208F8012D50EAA3
:1022B0000102F5D1ADEB080000F1200B680701D455
:1022C0004FF00109D94502DDA9EB0B0000E0002029
:1022D0008146002506E009A85246405D0D999047C9
:1022E0006D1C761C08988542F5DB04E030205246D0
:1022F0000D999047761CB9F10001A9F10109F5DCAF
:1023000005E018F8010B52460D999047761CBBF179
:102310000001ABF1010BF4DC641CFAE609280100B2
:102320000A68531C0B6010707047000010B504461B
:102330000420FEF76BFC0148047010BD060000206D
:1023400070B5054600244FF47A7603E0304600F07D
:1023500005F8641CAC42F9D370BD000070B54FF0B5
:10236000E024002265690949A36909784843A16905
:102370009942FCD002D2A3EB010302E0A5EB0106D7
:1023800033441A440B468242F1D370BD060000204C
:1023900004490A685206FCD5024AC1B2121D1160F6
:1023A00070470000003801402DE9F041224C234FD6
:1023B00006460025657010213846FEF7E7F888B11B
:1023C00008213846FEF7E2F860B104213846FEF7EE
:1023D000DDF838B1A088022801D9A0786070E570D6
:1023E000A58022E010213846FEF7D0F850B1082130
:1023F0003846FEF7CBF838B104213846FEF7C6F868
:1024000020B105E0012002E0022000E00320A070DE
:10241000A078E17888420BD1A188491C89B2A180BB
:102420002070002E02D1012900D92570BDE8F0816D
:10243000A580E070FAE700000000002000180140CD
:1024400098B065A10DF10C0C0FC98CE80F000024A9
:10245000FEF7BCF8FFF7E1FAFFF7B2F9FFF7BAFAB7
:10246000FFF772FAFFF792FAFFF7E8F9FFF720FAA1
:102470000820FFF75BFF5C48FEF784FC5B48FEF733
:1024800081FC5B48FEF77EFC00215A48FEF7E1FD27
:1024900058480068C16841F00101C16001225649F5
:1024A0005648FFF7E1F804214F48FEF785FF03A8DF
:1024B000FDF77CFE82B24FF47A7303A94F48FFF711
:1024C0001FF94D4DDFF83881DFF838914E4EA5F1F8
:1024D000010B4FF44877A246D5F8CC0018BBD5F8CD
:1024E000D00000B36978232903D110F80B00242809
:1024F00001D046A013E04AA0FFF7B8FD2020687085
:10250000D5F8D030691C03F80B00B5F8D0004FF4B3
:102510007A73401E82B23948FFF7F2F843A0FFF702
:10252000A5FDC5F8D0A098F80000012803D120210E
:102530003F48FEF730F899F80000032823D13D48C2
:102540000188B1F57A7F1ED34FF47A70B1FBF0F2B7
:1025500039A107A8FFF79AFD364801884FF47A7031
:10256000B1FBF0F200FB121068B907A8FDF71EFEE0
:1025700082B24FF47A7307A92048FFF7C1F84FF4ED
:10258000FA70FFF7EBFE641CA4B234600220FFF780
:10259000D7FEBC42F7D305E0641EA4B2346002202B
:1025A000FFF7CEFE002CF7D1284801780A0693D514
:1025B00001F03F00C10F0B04254943EA104300041A
:1025C0000A88821843EB0A0322A0FFF74FFD1F4839
:1025D00080F800A080E7000048656C6C6F20576FA2
:1025E000726C640D0A00000020000020A000002092
:1025F000E000002060000020600100202001002099
:10260000010000200200002038040040CAFDBEDDA9
:10261000B8F1CABDB4EDCEF3A3A10D0A00000000CD
:10262000CAD5B5BDCAFDBEDDA3BA00000D0A0000C3
:1026300000180140040000204B455932B1BBB0B432
:10264000CFC22564C3EB0D0A000000000800002083
:102650000A000020484947483A256C6C642075738D
:102660000D0A000000000000000000000102030449
:102670000607080900000000010203049C26000868
:102680000000002020000000D4200008BC26000824
:102690002000002018060000E420000800000000D0
:1026A0000000000000000000010000001000000019
:0C26B000000000000024F4000000000006
:0400000508000131BD
:00000001FF
