:020000040800F2
:10000000F0050020450100084F1500089513000871
:100010004D150008ED010008911A000800000000CD
:10002000000000000000000000000000551500085E
:10003000EF010008000000005315000857150008E4
:100040005F0100085F0100085F0100085F01000810
:100050005F0100085F0100085F0100085F01000800
:100060005F0100085F0100085F0100085F010008F0
:100070005F0100085F0100085F0100085F010008E0
:100080005F0100085F0100085F0100085F010008D0
:100090005F0100085F0100085F0100085F010008C0
:1000A0005F0100085F0100085F0100085F010008B0
:1000B0005F010008F11500085F0100085F010008FA
:1000C0005F0100085F0100085F0100085F01000890
:1000D0005F010008851A00085F0100085F01000841
:1000E0005F0100085F0100085F0100085F01000870
:1000F0005F0100085F0100085F0100085F01000860
:100100005F0100085F0100085F0100085F0100084F
:100110005F0100085F010008FD15000809160008CE
:100120005F0100085F0100085F0100085F0100082F
:10013000DFF80CD000F048F800480047911D000897
:10014000F00500200648804706480047FEE7FEE726
:10015000FEE7FEE7FEE7FEE7FEE7FEE7FEE7FEE777
:10016000A915000831010008D2B201E000F8012B06
:10017000491EFBD270470022F6E710B513460A4627
:1001800004461946FFF7F0FF204610BD421C10F848
:10019000011B0029FBD1801A704730B50B46014680
:1001A00000202022012409E021FA02F59D4205D316
:1001B00003FA02F5491B04FA02F52844151EA2F1C0
:1001C0000102F1DC30BD0000064C074D06E0E0689E
:1001D00040F0010394E8070098471034AC42F6D38E
:1001E000FFF7AAFF601F0008801F0008FEE77047A6
:1001F000704700002DE9F05F90F8211000240229DB
:1002000003D004218163012485E001680A6822F09B
:100210000E020A6001680A6822F001020A603F4E7D
:100220003E4FB215DFF8F4C0DFF8F090DFF8ECA035
:10023000DFF8E8B0DFF8E4E00168783F1301150269
:10024000ACF1640CA9F15009AAF13C0AABF1280BFE
:10025000AEF1140E4FF48018B14227D9B9420ED036
:10026000614512D049451DD0514518D0594518D087
:10027000714501D1424615E0294EB14201D101221A
:1002800010E0274E1436B14201D110220AE0244E6C
:100290002836B14206D0224A3C32914201D11A4658
:1002A00000E02A461E49091F0A602BE0B94213D01C
:1002B000614517D0494522D051451DD059451DD023
:1002C000714501D142461AE0B14202D14FF080722D
:1002D00015E0134EB14201D1012210E0104E143648
:1002E000B14201D110220AE00D4E2836B14206D0AB
:1002F0000B4A3C32914201D11A4600E02A46074996
:1003000080394A60012180F82110002180F82010F6
:10031000416B01B188472046BDE8F09F8000024054
:10032000080402402DE9F84FDFF8C891002409F1D4
:10033000040A0AF1040B23460F270BF1040ED1E047
:100340000125A54006EA0502AA4276D1DFF8A8C138
:100350004E68A6EB0C0866452BD00DDC032E34D07E
:1003600005DC36B3012E19D0022E2FD11BE0112E41
:1003700016D0122E2AD119E0B8F5881F19D006DC44
:10038000B8F5803F15D0B8F5801F1FD111E0B8F542
:10039000001F0ED0B8F5041F18D10AE0CB6815E095
:1003A000CB681B1D12E0CB6808330FE0CB680C3321
:1003B0000CE08B682BB1012B4FF0080303D0456193
:1003C00004E0042302E0056100E00023FF2A01D8D5
:1003D000064601E000F104064FEA840501D9A5F1C3
:1003E0002005D6F8008007FA05FC28EA0C0803FA75
:1003F00005F548EA0508C6F800804D68ED0070D59F
:100400003E4DAE6946F00106AE61AD6924F00306CB
:1004100005F0010500953A4D06EB050CDCF8085097
:10042000A607360F07FA06F825EA0805DFF8D48094
:10043000404503D14FF0000825E052E0DFF8C880C6
:10044000404502D14FF001081DE0DFF8C080404573
:1004500002D14FF0020816E0DFF8B480404502D127
:100460004FF003080FE0DFF8AC80404502D14FF0B9
:10047000040808E0DFF8A080404502D14FF00508ED
:1004800001E04FF0060808FA06F848EA0508CCF83B
:1004900008804D68D9F80060ED034D4601D516433C
:1004A00000E096432E604D68DAF80060AD035546D3
:1004B00001D5164300E096432E604D68DBF80060DE
:1004C000ED025D4601D5164300E096432E604D686F
:1004D000DEF80060AD02754601D5164300E0964394
:1004E0002E60641C0A681646E2407FF429AFBDE81E
:1004F000F88F0000000401400000111000100240BD
:100500000000014000080140000C014000100140C3
:100510000014014000180140001C014080680840A0
:1005200000D001207047C2680A4201D04161704783
:10053000016170470AB1016170470904FBE70000DF
:100540000148806870470000080000200248816868
:10055000027811448160704708000020074810B5F8
:10056000016841F010010160032000F075F80020DF
:1005700000F006F800F024F8002010BD0020024032
:1005800070B50D4D04464FF47A712878B1FBF0F048
:100590000A490968B1FBF0F000F00CFB48B9102CD7
:1005A00007D200222146501E00F036F800206C6071
:1005B00070BD012070BD0000080000201400002064
:1005C0000C4808B5816941F001018161816901F040
:1005D00001010091C16941F08051C161C06900F021
:1005E000805000900448416821F0E06141F00071C2
:1005F000416008BD0010024000000140002809DBF6
:1006000000F01F02012191404009800000F1E0202C
:10061000C0F8001170470000F0B40E4B1B680C4688
:10062000C3F30223C3F10705042D00D90425191DC6
:10063000072901D2002300E0DB1E012606FA05F19E
:10064000491E214099409E40761E16403143F0BC21
:1006500001F044BA0CED00E0064900F0070208681A
:100660004FF6FF03184040EA0220034A1043086097
:10067000704700000CED00E00000FA057047000034
:100680002DE9F0470F46050061D0434E306800F079
:100690000700B84209D2306820F0070038433060C4
:1006A000306800F00700B84251D128683B4C810700
:1006B00012D5400703D5606840F4E0606060287898
:1006C000000703D5606840F4605060606068A96806
:1006D00020F0F000084360602878C00728D06868E0
:1006E000012810D02168022810D0890700292EDAAD
:1006F000616821F0030101436160FFF721FF80463B
:1007000041F288390DE021688903EFE78901EDE7BF
:10071000FFF716FFA0EB0801494502D90320BDE809
:10072000F0876068696800F00C00B0EB810FEFD1D2
:10073000306800F00700B8420BD9306820F007009D
:1007400038433060306800F00700B84201D0012023
:10075000E5E72878400705D56068E96820F4E0609F
:10076000084360602878000706D56068296920F48E
:10077000605040EAC100606000F03EF86168084ADD
:10078000C1F30311515CC84006490860064800687F
:10079000FFF7F6FE0020C2E70020024000100240F2
:1007A000481F0008140000200C000020014901200F
:1007B000C86470470000424204480549006849681F
:1007C000044AC1F30221515CC84070471400002064
:1007D00000100240581F0008044805490068496895
:1007E000044AC1F3C221515CC84070471400002084
:1007F00000100240581F000812A185B00FC98DE8F3
:100800000F0014A0144A006804905168134801F0C6
:100810000C03042B10D0082B0ED1C1F38343C90362
:100820001DF803000AD5516804AAC1F34041515C88
:100830000A4A5043B0FBF1F005B0704708494843FD
:10084000FAE7000002030405060708090A0B0C0D6D
:100850000E0F1010010200000010024000127A007A
:1008600000093D0010B5044CA068000603D5FFF751
:1008700005FF8020A07210BD001002402DE9F84F46
:10088000040070D02078C04DC00749D06868C0F31C
:100890008100012807D06868C0F38100022809D1CF
:1008A0006868C00306D52868800339D560680028C9
:1008B000E7D035E06068B0F5803F0BD010B1B0F5FF
:1008C000A02F11D0286820F480302860286820F4F8
:1008D000802002E0286840F480302860606890B191
:1008E000FFF72EFE06460AE0286840F480202860C4
:1008F000F0E700BFFFF724FE801B642873D8286848
:100900008003F7D50CE0FFF71BFE064605E000BFAD
:10091000FFF716FE801B6428F0D828688003F7D400
:1009200020789A4E80074FF001094FF0000839D522
:10093000686810F00C0F07D06868C0F381000228C7
:1009400009D16868C00306D42868800714D52069D7
:10095000012808D110E02069B0B1C6F80090FFF777
:10096000EFFD074605E00AE1FFF7EAFDC01B02289C
:10097000C4D828688007F7D52868616920F0F80096
:1009800040EAC10028600DE0C6F80080FFF7D8FDFE
:10099000074604E0FFF7D4FDC01B022823D82868CF
:1009A0008007F7D4207800072CD57948A169D9B100
:1009B000C0F80090FFF7C4FD074604E0FFF7C0FD54
:1009C000C01B02280FD8686A8007F7D571484FF41A
:1009D000FA510068B0FBF1F0009000BF0098411E92
:1009E0000091FAD20EE080E0C0F80080FFF7A8FD89
:1009F000074604E0FFF7A4FDC01B022875D8686A0B
:100A00008007F7D42078400760D5E8690027C00048
:100A100008D4E86940F08050E861E869012700F0F7
:100A2000805000905C480168C90513D40168834672
:100A300041F480710160FFF783FD824606E000BF4C
:100A4000FFF77EFDA0EB0A0064284ED8DBF800001B
:100A5000C005F5D5E06801280AD008B1052813D0F3
:100A6000286A20F001002862286A20F0040002E0D1
:100A7000286A40F001002862E06841F2883B98B1A2
:100A8000FFF75EFD82460BE0286A40F00400286212
:100A9000EEE700BFFFF754FDA0EB0A0159455AD815
:100AA000286A8007F6D50CE0FFF74AFD824605E08C
:100AB000FFF746FDA0EB0A0159454CD8286A80078C
:100AC000F6D41FB1E86920F08050E861E06988B38E
:100AD0006968C1F38101022944D00228C6F8608008
:100AE00004D0FFF72DFD044638E034E0FFF728FD81
:100AF000074604E0FFF724FDC01B02282BD8286816
:100B00008001F7D4206AB0F5803F05D16868A168FC
:100B100020F4003008436860D4E90801084369689C
:100B200021F4741108436860C6F86090FFF708FD6F
:100B3000044606E025E000BFFFF702FD001B022887
:100B400009D828688001F7D51BE000BFFFF7F8FC43
:100B5000001B022802D90320BDE8F88F2868800115
:100B6000F4D40EE00128F7D06868226A00F48031DE
:100B7000914204D1616A00F47010884201D00120D2
:100B8000EAE70020E8E700000010024000004242CF
:100B90008004424214000020007000404FF0E02129
:100BA0000428086903D020F004000861704740F071
:100BB0000400FAE710B5401EB0F1807F01D3012098
:100BC00010BD4FF0E02460610F21601700F086FF38
:100BD0000020A06107202061002010BD70477047F1
:100BE00070B590F83C20012A19D0012400F83C4F40
:100BF0000222427050F83C3C5A689D6822F0700610
:100C00000A684968324325F0800529435A6050F844
:100C10003C2C9160447000210170084670BD022098
:100C200070BD10B5040003D094F83D0010B107E08A
:100C3000012010BD002084F83C00204600F00CF894
:100C4000022084F83D00211D206800F0E3FC012013
:100C500084F83D00002010BD08B5154A016815480C
:100C600091420ED1C16941F01001C161C0690022F9
:100C700000F01000009011463620FFF7CDFC362022
:100C800010E00D4A914211D1C16941F02001C161CA
:100C9000C069002200F02000009011463720FFF7C5
:100CA000BBFC3720BDE80840FFF7A8BC08BD00002A
:100CB0000010004000100240001400400168CA68A3
:100CC00042F00102CA600068816801F0070106294C
:100CD00003D0016841F001010160002070477047B6
:100CE00070B50446006801694FF00005C9438907E3
:100CF00015D4C168C943890711D4E91E01610120D7
:100D00002077206880698007204602D0FFF7E7FF40
:100D100004E000F0C9F8204600F068F92577206863
:100D20000169C943490717D4C168C943490713D4A6
:100D30006FF004010161022020772068806910F4BF
:100D4000407F204602D0FFF7CAFF04E000F0ACF875
:100D5000204600F04BF9257720680169C94309074F
:100D600016D4C168C943090712D46FF008010161A4
:100D7000042020772068C0698007204602D0FFF752
:100D8000AEFF04E000F090F8204600F02FF9257740
:100D900020680169C943C90617D4C168C943C90697
:100DA00013D46FF010010161082020772068C0691A
:100DB00010F4407F204602D0FFF791FF04E000F0DE
:100DC00073F8204600F012F9257720680169C943BD
:100DD000C90708D1C168C943C90704D1891E016187
:100DE000204600F027F920680169C943090609D4A3
:100DF000C168C943090605D46FF08001016120462E
:100E0000FFF7ECFE20680169C943490609D4C168AF
:100E1000C943490605D46FF040010161204600F046
:100E200013F920680169C94389060BD4C168C94315
:100E3000890607D46FF0200101612046BDE87040AB
:100E4000FFF7CDBE70BD000000B585B00021009158
:100E500001910291039100680F4988421AD10F480D
:100E6000816941F0080181618069694600F00800EC
:100E70000490202000900220019003900848FFF782
:100E800051FA0848416821F4406141F0E06141F4C1
:100E90000061416005B000BD000400400010024048
:100EA000000C014000000140704770B5044690F806
:100EB0003C000D4601280DD0012684F83C6002203C
:100EC00084F83D0042B1042A18D0082A2AD00C2AFE
:100ED0004DD139E0022070BD206800F0EFFB2068A2
:100EE000816941F0080181612068816921F0040174
:100EF0008161206881692A69114311E0206800F04E
:100F00000DFC2068816941F400618161206881697C
:100F100021F480618161206881692A6941EA0221A6
:100F2000816124E0206800F02FFC2068C16941F055
:100F30000801C1612068C16921F00401C161206814
:100F4000C1692A69114311E0206800F051FC206852
:100F5000C16941F40061C1612068C16921F4806107
:100F6000C1612068C1692A6941EA0221C16184F82E
:100F70003D60002084F83C0070BD10B5040003D033
:100F800094F83D0010B107E0012010BD002084F866
:100F90003C00204600F00CF8022084F83D00211DA2
:100FA000206800F037FB012084F83D00002010BDD0
:100FB00008B500680B49884212D10B48C16941F05D
:100FC0000201C161C069002200F0020000901146D8
:100FD0001D20FFF721FBBDE808401D20FFF70EBBD9
:100FE00008BD0000000400400010024070470000EF
:100FF00010B504460068012200F052FB0B4920683E
:10100000884202D00A49884203D1416C41F4004130
:1010100041642068816801F00701062903D0016856
:1010200041F001010160002010BD0000002C0140D2
:101030000034014000680349884202D1012000F0D9
:101040005BBE7047001000407047704770B5026883
:1010500004461068D168536910F00F0F50D003F0A8
:10106000010501F4907635435DD0C20705D0CA056D
:1010700003D5E26B42F00102E263420705D5DA07CD
:1010800003D0E26B42F00202E263820705D5DA0781
:1010900003D0E26B42F00402E263020705D5DA07EF
:1010A00003D0E26B42F00802E263E26B002A33D025
:1010B000800604D5880602D5204600F0D7FB2068BC
:1010C0004069E16BC0F38010090700D428B32046C3
:1010D00000F0BEFB2068416949061AD5416921F03C
:1010E00040014161606BA0B11B494163606BFFF738
:1010F00081F8002810D0606B416BBDE87040084754
:10110000830610D58B060ED52046BDE8704000F052
:10111000ADBB2046FFF799FF70BD2046FFF795FF56
:101120000020E06370BD030606D50B0604D52046FB
:10113000BDE8704000F042BC4006F3D54806F1D54A
:10114000D168204621F04001D160202184F8391077
:1011500000F01FF970BD00004118000870B50400D0
:1011600004D094F83900002510B106E0012070BDCC
:1011700084F83850204600F023F8242084F8390001
:101180002068C16821F40051C160204600F0BAFB1C
:101190002068016921F4904101612068416921F0D2
:1011A0002A0141612068C16841F40051C160E563D2
:1011B000202084F8390084F83A00002070BD000037
:1011C00030B585B000240094019402940394006823
:1011D000184988422CD11848816941F480418161C5
:1011E000816901F480410491816941F004018161C8
:1011F0008069124D00F0040004904FF400700090DC
:10120000022001900320039069462846FFF78AF8E0
:101210002815CDE90004694628460294FFF782F8B4
:10122000002211462520FFF7F7F92520FFF7E6F900
:1012300005B030BD003801400010024000080140F8
:1012400090F83A30202B22D1F9B1F2B190F8383031
:10125000012B1CD081628285C2850021C1632222BC
:1012600080F83A2080F838100168CA6842F4807229
:10127000CA6001684A6942F001024A610068C168B7
:1012800041F02001C160002070470120704702201A
:101290007047000000680E49884218D10D48014689
:1012A0000278D1F8CC100A2A06D0431CCA5450F850
:1012B000CC1F491C016004E0C0F8D0100021C0F828
:1012C000CC1004490122A1F14000FFF7B9BF7047DB
:1012D000003801401C0100202DE9F843044690F835
:1012E00039001F4616460D46202850D1A5B19EB1A3
:1012F00094F8380001284AD0012084F838004FF0D3
:101300000008C4F83C80212084F83900FFF718F960
:10131000A6848146E68426E00120BDE8F883E08CBF
:10132000401EE084A0684B46B0F5805F4FF000029D
:101330004FF080012046009703D000F070FBE8B921
:101340000DE000F06CFBC8B928882168C0F30800E4
:101350004860206908B16D1C05E0AD1C03E0216800
:1013600015F8010B4860E08C0028D8D14B460022CC
:1013700040212046009700F052FB08B10320CCE743
:10138000202084F8390084F838800020C5E7022046
:10139000C3E77047FEE7000070B586B000241B4825
:1013A0000094019402940394816941F040018161A9
:1013B000816901F040010491816941F0040181617A
:1013C000816901F004010491816941F008018161A2
:1013D00080690F4E00F00800049000222021304662
:1013E000FFF7A8F81C2001258DE83100694630463A
:1013F000FEF798FF2020CDE900050220CDE902404C
:1014000069463046FEF78EFF06B070BD0010024000
:101410000018014010B58AB0002407941C216846CA
:101420000894FEF7A8FE17481549016040F2F31131
:10143000C0E901144721C0E903148461FFF79DFD51
:1014400008B1FEF7D5FE079407A90E480894FFF7E8
:10145000C7FB08B1FEF7CCFE6020CDE900040220F6
:1014600002900422694604940648FFF71EFD08B165
:10147000FEF7BEFE0348FFF7E7FC0AB010BD000010
:10148000000400401C0000201CB500240E480094FD
:101490000C49019401604F21C0E90114C721846106
:1014A000C160FFF7BEFB08B1FEF7A2FE00946946DB
:1014B00005480194FFF794FB002801D0FEF798FE41
:1014C0001CBD0000001000405C0000201CB5002482
:1014D0000F4800940D490194016040F2E731C0E9E2
:1014E000011440F2AF418461C160FFF79AFB08B17B
:1014F000FEF77EFE0094694605480194FFF770FBF5
:10150000002801D0FEF774FE1CBD0000001400404E
:101510009C0000200C4810B50A4901604FF4E131ED
:101520004160002181600C22C160C0E90412816128
:10153000C161FFF713FE002803D0BDE81040FEF79D
:1015400057BE10BD00380140DC000020FEE7FFF769
:1015500089B970477047FEF7F9BF30B58FB02821C1
:101560006846FEF708FE14210AA8FEF704FE0121D2
:10157000080400240491CDE90010CDE90804029488
:10158000022507956846FFF779F90F20CDE90A058E
:101590008020CDE90C0400210AA80E94FFF770F812
:1015A000FFF704F90FB030BD0D48016841F00101AB
:1015B000016041680B4A1140416001680A4A1140CC
:1015C0000160016821F480210160416821F4FE017D
:1015D00041604FF41F0181600449C00308607047F7
:1015E000001002400000FFF8FFFFF6FE08ED00E0EB
:1015F0000148FFF775BB00001C0000200148FFF701
:101600006FBB00005C0000200148FFF769BB0000D1
:101610009C000020F0B502681C4B1D4D1D4E1E4F56
:101620001E4C4FF0804C984209D0A04207D0604534
:1016300005D0A84203D0B04201D0B84204D122F074
:10164000700E4A6842EA0E02984209D0A04207D0C2
:10165000604505D0A84203D0B04201D0B84203D1C2
:1016600022F44075CA682A434D6922F080022A4359
:1016700002608A68C2620A688262984201D0A0420F
:1016800001D10969016301214161F0BD002C0140D4
:101690000004004000080040000C004000340140FD
:1016A00010B501F01F030121046A99408C430462C4
:1016B000016A9A401143016210BD0000F0B5026A50
:1016C00022F001020262036A42688469124E24F029
:1016D00073050C682C4323F002058B682B430D4DDA
:1016E000A84201D0B04205D123F00807CB683B43A4
:1016F00023F00403A84201D0B04205D14D6922F481
:10170000407215438A692A43426084614968416393
:101710000362F0BD002C014000340140F0B5026AC4
:1017200022F010020262026A436884690D6824F4A0
:10173000E64444EA05248D6822F0200242EA0512BC
:101740000F4D104EA84201D0B04206D1CF6822F012
:10175000800242EA071222F04002A84201D0B042C1
:1017600007D14D6923F4406343EA85038D6943EA59
:10177000850343608461496881630262F0BD0000B3
:10178000002C014000340140F0B5026A22F480725E
:101790000262026A4368C46922F4007224F073058D
:1017A0000C68124E2C438D6842EA05220E4DA84269
:1017B00001D0B04206D1CF6822F4006242EA07228B
:1017C00022F48062A84201D0B04207D14D6923F4CF
:1017D000405343EA05138D6943EA05134360C4612E
:1017E0004968C1630262F0BD002C01400034014031
:1017F00030B5026A22F480520262046A4268C36908
:101800000D6823F4E64343EA05238D6824F400546D
:1018100044EA0534084DA84202D0084DA84204D13C
:101820004D6922F4804242EA85124260C3614968F0
:101830000164046230BD0000002C0140003401400E
:1018400010B5406A0021C185C184FFF7FEFB10BDC1
:101850000168CA6822F49072CA6001684A6922F07D
:1018600001024A61202180F83A10704710B590F8C3
:101870003A10222901D0022010BD8168B1F5805FA5
:1018800011D00169002901681FD0496801F07F0368
:10189000816A4A1C82620B70C18D491E0904090CC1
:1018A000C18518D02BE00269816A002A026852685B
:1018B00005D0D2B20A80816A491C8162ECE7C2F38A
:1018C00008020A80816A891CF7E74A68816A4B1C12
:1018D00083620A70E0E70168CA6822F02002CA60E9
:1018E0000168CA6822F48072CA6001684A6922F0FD
:1018F00001024A61202180F83A10FFF7CBFC00205A
:1019000010BD00002DE9F041044600680169E2685D
:1019100021F44051114301612169A06808436169C4
:1019200008432168CA6841F20C639A430243CA60C3
:1019300020684169A26921F44071114341611E4947
:10194000206864253226884202D1FEF745FF01E077
:10195000FEF732FF00EBC00101EB001160686FF091
:1019600018078000B1FBF0F2B2FBF5F2B1FBF0F327
:101970007A4303EB8202B1FBF0F306EB0212B2FBF7
:10198000F5F2B3FBF5F302F0F00202EB0312B1FB48
:10199000F0F3B1FBF0F0B0FBF5F0784303EB80001F
:1019A00006EB0010B0FBF5F0216800F00F001044CA
:1019B0008860BDE8F08100000038014090F83910DF
:1019C000212901D0022070478168B1F5805F016A4A
:1019D0000BD04A1C0262026809785160C18C491E12
:1019E0000904090CC1840ED017E009880268C1F30C
:1019F0000801516001690029016A02D0491C016295
:101A0000ECE7891CFBE70168CA6822F08002CA6023
:101A10000068C16841F04001C160002070472DE9B5
:101A2000F041984617460E460446069D1DE0681C88
:101A30001BD02DB1FEF784FDA0EB0800A84214D9FD
:101A40002068C16821F4D071C1602068416921F02B
:101A500001014161202084F8390084F83A00002017
:101A600084F838000320BDE8F0812068006836EA79
:101A7000000004D00020B842D9D00020F3E70120B4
:101A8000F9E700000148FFF7E1BA0000DC000020A0
:101A9000FEE700000FB4054B10B503A9044A0298F5
:101AA00000F03CF810BC5DF814FB0000E11C0008DD
:101AB000180000200FB4084B10B504A902AA03981F
:101AC00000F02CF8044602A9002000F0D1F82046CE
:101AD00010BC5DF814FB0000711C00080907090E1A
:101AE000002804DB00F1E02080F80014704700F0CB
:101AF0000F0000F1E02080F8141D704702E008C8D4
:101B0000121F08C1002AFAD170477047002001E077
:101B100001C1121F002AFBD1704700002DE9FF4FC1
:101B200089B09B460446002506E025280BD05A467E
:101B30000B999047641C6D1C20780028F5D10DB0DE
:101B40002846BDE8F08F0027B8460122474900E04B
:101B5000074314F8013F203B02FA03F00842F7D193
:101B600020782E2819D114F8010F47F004072A28ED
:101B70000ED06FF02F022078A0F1300109290CD887
:101B800008EB880102EB410100EB0108641CF2E75D
:101B90000A98641C50F8048B0A9020780028CED054
:101BA000642808D0692806D075281ED05A460B999B
:101BB00090476D1C58E00A994FF00A0901C90A9133
:101BC000002802DA40422D2102E0390504D52B21FC
:101BD0008DF82010012103E0F90704D02021F7E758
:101BE0008A4608AE0DE00021FAE70A994FF00A098B
:101BF00001C90A91F7E74946FEF7CFFA303106F8F6
:101C0000011D0028F7D1ADEB060000F1200978078F
:101C100001D44FF00108C84502DDA8EB090000E03F
:101C200000208046002706E008A85A46C05D0B99B0
:101C300090476D1C7F1C5745F6DB04E030205A4668
:101C40000B9990476D1CB8F10001A8F10108F5DC73
:101C500005E016F8010B5A460B9990476D1CB9F137
:101C60000001A9F10109F4DC641C65E70928010001
:101C70000A68531C0B6010707047000010B50446D2
:101C80000420FEF78BFF0148047010BD0600002001
:101C900070B5054600244FF47A7603E0304600F034
:101CA00005F8641CAC42F9D370BD000070B54FF06C
:101CB000E024002265690949A36909784843A169BC
:101CC0009942FCD002D2A3EB010302E0A5EB01068E
:101CD00033441A440B468242F1D370BD0600002003
:101CE00004490A685206FCD5024AC1B2121D1160AD
:101CF00070470000003801402DE9F041224C234F8D
:101D000006460025657010213846FEF707FC88B1AD
:101D100008213846FEF702FC60B104213846FEF780
:101D2000FDFB38B1A088022801D9A0786070E57069
:101D3000A58022E010213846FEF7F0FB50B10821C3
:101D40003846FEF7EBFB38B104213846FEF7E6FBD8
:101D500020B105E0012002E0022000E00320A07095
:101D6000A078E17888420BD1A188491C89B2A18072
:101D70002070002E02D1012900D92570BDE8F08124
:101D8000A580E070FAE70000000000200018014084
:101D900094B051A10DF1400C0FC98CE80F00002444
:101DA000FEF7DCFBFFF7D9FBFFF7F6FAFFF7B2FB14
:101DB000FFF76AFBFFF78AFBFFF72CFB0820FFF712
:101DC0005DFF4948FEF77AFF4848FEF777FF48482D
:101DD000FEF774FF012247494748FFF731FA042113
:101DE0004148FFF705F910A8FEF7D0F982B24FF489
:101DF0007A7B5B4610A94048FFF76EFA3D4DDFF84D
:101E0000FC80DFF8FC903F4EA5F1010A4FF4967775
:101E1000D5F8CC0018BBD5F8D00000B369782329D9
:101E200003D110F80A00242801D037A012E03BA00B
:101E3000FFF730FE20206870D5F8D0205B46691C83
:101E400002F80A00B5F8D000401E82B22A48FFF717
:101E500043FA35A0FFF71EFE0020C5F8D00098F821
:101E60000000012803D120213048FEF75CFB99F8DF
:101E7000000003281DD12E480188594519D3B1FB14
:101E8000FBF22CA16846FFF715FE29480188B1FB3B
:101E9000FBF20BFB121060B96846FEF777F982B2CD
:101EA0005B4669461448FFF717FA4FF4FA70FFF7DC
:101EB000FDFE641CA4B234600A20FFF7E9FEBC42B8
:101EC000F7D305E0641EA4B234600A20FFF7E0FEF9
:101ED000002C9DD0F6E7000048656C6C6F20576FB2
:101EE000726C640D0A0000001C0000205C000020E1
:101EF0009C0000201C010020DC00002001000020CC
:101F00000200002038040040CAFDBEDDB8F1CABDA1
:101F1000B4EDCEF3A3A10D0A00000000CAD5B5BDF3
:101F2000CAFDBEDDA3BA00000D0A00000018014082
:101F3000040000204B455932B1BBB0B4CFC2256478
:101F4000C3EB0D0A000000000000000000000000CC
:101F5000010203040607080900000000010203044F
:101F6000801F0008000000201C000000FC1A000870
:101F70009C1F00081C000020D40500000C1B00085A
:101F80000000000000000000010000001000000040
:0C1F9000000000000024F400000000002D
:0400000508000131BD
:00000001FF
