:020000040800F2
:10000000E004002045010008F312000885110008F3
:10001000F1120008C1010008851600080000000068
:10002000000000000000000000000000F7120008BF
:10003000C301000800000000F5120008F9120008D2
:100040005F0100085F0100085F0100085F01000810
:100050005F0100085F0100085F0100085F01000800
:100060005F0100085F0100085F0100085F010008F0
:100070005F0100085F0100085F0100085F010008E0
:100080005F0100085F0100085F0100085F010008D0
:100090005F0100085F0100085F0100085F010008C0
:1000A0005F0100085F0100085F0100085F010008B0
:1000B0005F0100085F0100085F0100085F010008A0
:1000C0005F0100085F0100085F0100085F01000890
:1000D0005F010008791600085F0100085F01000851
:1000E0005F0100085F0100085F0100085F01000870
:1000F0005F0100085F0100085F0100085F01000860
:100100005F0100085F0100085F0100085F0100084F
:100110005F0100085F010008911300089D130008AB
:100120005F0100085F0100085F0100085F0100082F
:10013000DFF80CD000F032F800480047A1180008A2
:10014000E00400200648804706480047FEE7FEE737
:10015000FEE7FEE7FEE7FEE7FEE7FEE7FEE7FEE777
:100160004913000831010008D2B201E000F8012B68
:10017000491EFBD270470022F6E710B513460A4627
:1001800004461946FFF7F0FF204610BD421C10F848
:10019000011B0029FBD1801A70470000064C074D57
:1001A00006E0E06840F0010394E807009847103447
:1001B000AC42F6D3FFF7C0FFD0190008F0190008D1
:1001C000FEE77047704700002DE9F05F90F82110BE
:1001D0000024022903D004218163012485E0016801
:1001E0000A6822F00E020A6001680A6822F0010221
:1001F0000A603F4E3E4FB215DFF8F4C0DFF8F090D2
:10020000DFF8ECA0DFF8E8B0DFF8E4E00168783F61
:1002100013011502ACF1640CA9F15009AAF13C0AD2
:10022000ABF1280BAEF1140E4FF48018B14227D970
:10023000B9420ED0614512D049451DD0514518D064
:10024000594518D0714501D1424615E0294EB142B9
:1002500001D1012210E0274E1436B14201D1102203
:100260000AE0244E2836B14206D0224A3C3291425E
:1002700001D11A4600E02A461E49091F0A602BE0F8
:10028000B94213D0614517D0494522D051451DD000
:1002900059451DD0714501D142461AE0B14202D103
:1002A0004FF0807215E0134EB14201D1012210E0EF
:1002B000104E1436B14201D110220AE00D4E2836FC
:1002C000B14206D00B4A3C32914201D11A4600E0BD
:1002D0002A46074980394A60012180F8211000210F
:1002E00080F82010416B01B188472046BDE8F09F9F
:1002F00080000240080402402DE9F84FDFF8C89161
:10030000002409F1040A0AF1040B23460F270BF11C
:10031000040ED1E00125A54006EA0502AA4276D1E5
:10032000DFF8A8C14E68A6EB0C0866452BD00DDCA3
:10033000032E34D005DC36B3012E19D0022E2FD176
:100340001BE0112E16D0122E2AD119E0B8F5881F05
:1003500019D006DCB8F5803F15D0B8F5801F1FD145
:1003600011E0B8F5001F0ED0B8F5041F18D10AE04F
:10037000CB6815E0CB681B1D12E0CB6808330FE09B
:10038000CB680C330CE08B682BB1012B4FF00803CA
:1003900003D0456104E0042302E0056100E000238E
:1003A000FF2A01D8064601E000F104064FEA840561
:1003B00001D9A5F12005D6F8008007FA05FC28EA46
:1003C0000C0803FA05F548EA0508C6F800804D68F0
:1003D000ED0070D53E4DAE6946F00106AE61AD69E7
:1003E00024F0030605F0010500953A4D06EB050CD7
:1003F000DCF80850A607360F07FA06F825EA0805C4
:10040000DFF8D480404503D14FF0000825E052E0EA
:10041000DFF8C880404502D14FF001081DE0DFF849
:10042000C080404502D14FF0020816E0DFF8B480EA
:10043000404502D14FF003080FE0DFF8AC804045A3
:1004400002D14FF0040808E0DFF8A080404502D157
:100450004FF0050801E04FF0060808FA06F848EAF0
:100460000508CCF808804D68D9F80060ED034D46CA
:1004700001D5164300E096432E604D68DAF800601F
:10048000AD03554601D5164300E096432E604D68F6
:10049000DBF80060ED025D4601D5164300E09643AF
:1004A0002E604D68DEF80060AD02754601D516433A
:1004B00000E096432E60641C0A681646E2407FF412
:1004C00029AFBDE8F88F00000004014000001110C2
:1004D000001002400000014000080140000C0140F3
:1004E000001001400014014000180140001C0140B0
:1004F0008068084000D001207047C2680A4201D0DD
:1005000041617047016170470AB101617047090498
:10051000FBE70000014880687047000008000020E9
:100520000248816802781144816070470800002009
:10053000074810B5016841F010010160032000F088
:1005400075F8002000F006F800F024F8002010BD37
:100550000020024070B50D4D04464FF47A712878A2
:10056000B1FBF0F00A490968B1FBF0F000F0ECFAD9
:1005700048B9102C07D200222146501E00F036F850
:1005800000206C6070BD012070BD000008000020DC
:10059000140000200C4808B5816941F00101816117
:1005A000816901F001010091C16941F08051C1618F
:1005B000C06900F0805000900448416821F0E0617B
:1005C00041F00071416008BD001002400000014090
:1005D000002809DB00F01F02012191404009800042
:1005E00000F1E020C0F8001170470000F0B40E4B9D
:1005F0001B680C46C3F30223C3F10705042D00D981
:100600000425191D072901D2002300E0DB1E012665
:1006100006FA05F1491E214099409E40761E16407B
:100620003143F0BC01F054B80CED00E0064900F095
:10063000070208684FF6FF03184040EA0220034A09
:1006400010430860704700000CED00E00000FA0560
:100650002DE9F0470F46050061D0434E306800F0A9
:100660000700B84209D2306820F0070038433060F4
:10067000306800F00700B84251D128683B4C810730
:1006800012D5400703D5606840F4E06060602878C8
:10069000000703D5606840F4605060606068A96836
:1006A00020F0F000084360602878C00728D0686810
:1006B000012810D02168022810D0890700292EDADD
:1006C000616821F0030101436160FFF723FF804669
:1006D00041F288390DE021688903EFE78901EDE7F0
:1006E000FFF718FFA0EB0801494502D90320BDE838
:1006F000F0876068696800F00C00B0EB810FEFD103
:10070000306800F00700B8420BD9306820F00700CD
:1007100038433060306800F00700B84201D0012053
:10072000E5E72878400705D56068E96820F4E060CF
:10073000084360602878000706D56068296920F4BE
:10074000605040EAC100606000F038F86168084A13
:10075000C1F30311515CC8400649086006480068AF
:10076000FFF7F8FE0020C2E7002002400010024020
:10077000B8190008140000200C00002004480549A6
:1007800000684968044AC1F30221515CC8407047BF
:100790001400002000100240C81900080448054950
:1007A00000684968044AC1F3C221515CC8407047DF
:1007B0001400002000100240C819000812A185B0E2
:1007C0000FC98DE80F0014A0144A00680490516806
:1007D000134801F00C03042B10D0082B0ED1C1F3E9
:1007E0008343C9031DF803000AD5516804AAC1F365
:1007F0004041515C0A4A5043B0FBF1F005B07047EC
:1008000008494843FAE700000203040506070809FF
:100810000A0B0C0D0E0F1010010200000010024018
:1008200000127A0000093D002DE9F84F040070D055
:100830002078C04DC00749D06868C0F38100012806
:1008400007D06868C0F38100022809D16868C00336
:1008500006D52868800339D560680028E7D035E0E0
:100860006068B0F5803F0BD010B1B0F5A02F11D06B
:10087000286820F480302860286820F4802002E076
:10088000286840F480302860606890B1FFF742FE2D
:1008900006460AE0286840F480202860F0E700BFA0
:1008A000FFF738FE801B642873D828688003F7D5CB
:1008B0000CE0FFF72FFE064605E000BFFFF72AFE1B
:1008C000801B6428F0D828688003F7D420789A4EDB
:1008D00080074FF001094FF0000839D5686810F023
:1008E0000C0F07D06868C0F38100022809D168683E
:1008F000C00306D42868800714D52069012808D1D0
:1009000010E02069B0B1C6F80090FFF703FE07467B
:1009100005E00AE1FFF7FEFDC01B0228C4D82868E5
:100920008007F7D52868616920F0F80040EAC10027
:1009300028600DE0C6F80080FFF7ECFD074604E0F4
:10094000FFF7E8FDC01B022823D828688007F7D4EA
:10095000207800072CD57948A169D9B1C0F800905A
:10096000FFF7D8FD074604E0FFF7D4FDC01B0228BF
:100970000FD8686A8007F7D571484FF4FA510068BC
:10098000B0FBF1F0009000BF0098411E0091FAD238
:100990000EE080E0C0F80080FFF7BCFD074604E0F1
:1009A000FFF7B8FDC01B022875D8686A8007F7D426
:1009B0002078400760D5E8690027C00008D4E869BE
:1009C00040F08050E861E869012700F08050009015
:1009D0005C480168C90513D40168834641F48071FD
:1009E0000160FFF797FD824606E000BFFFF792FD2A
:1009F000A0EB0A0064284ED8DBF80000C005F5D54E
:100A0000E06801280AD008B1052813D0286A20F030
:100A100001002862286A20F0040002E0286A40F001
:100A200001002862E06841F2883B98B1FFF772FD4F
:100A300082460BE0286A40F004002862EEE700BF1F
:100A4000FFF768FDA0EB0A0159455AD8286A8007CC
:100A5000F6D50CE0FFF75EFD824605E0FFF75AFD94
:100A6000A0EB0A0159454CD8286A8007F6D41FB17B
:100A7000E86920F08050E861E06988B36968C1F3F3
:100A80008101022944D00228C6F8608004D0FFF713
:100A900041FD044638E034E0FFF73CFD074604E042
:100AA000FFF738FDC01B02282BD828688001F7D437
:100AB000206AB0F5803F05D16868A16820F4003055
:100AC00008436860D4E908010843696821F4741197
:100AD00008436860C6F86090FFF71CFD044606E016
:100AE00025E000BFFFF716FD001B022809D8286883
:100AF0008001F7D51BE000BFFFF70CFD001B0228AB
:100B000002D90320BDE8F88F28688001F4D40EE0F4
:100B10000128F7D06868226A00F48031914204D13C
:100B2000616A00F47010884201D00120EAE70020D9
:100B3000E8E7000000100240000042428004424208
:100B4000140000200070004010B5401EB0F1807FFE
:100B500001D3012010BD4FF0E02460610F21601728
:100B600000F0B6FD0020A06107202061002010BD2C
:100B70007047704770B590F83C20012A19D00124C5
:100B800000F83C4F0222427050F83C3C5A689D6885
:100B900022F070060A684968324325F0800529432F
:100BA0005A6050F83C2C9160447000210170084656
:100BB00070BD022070BD10B5040003D094F83D0054
:100BC00010B107E0012010BD002084F83C00204651
:100BD00000F00CF8022084F83D00211D206800F090
:100BE000E3FB012084F83D00002010BD08B5154A44
:100BF0000168154891420ED1C16941F01001C161EF
:100C0000C069002200F01000009011463620FFF766
:100C1000EDFC362010E00D4A914211D1C16941F03E
:100C20002001C161C069002200F02000009011463F
:100C30003720FFF7DBFC3720BDE80840FFF7C8BCD2
:100C400008BD0000001000400010024000140040E9
:100C50000168CA6842F00102CA600068816801F058
:100C60000701062903D0016841F00101016000205D
:100C70007047704770B50446006801694FF0000581
:100C8000C943890715D4C168C943890711D4E91E2E
:100C9000016101202077206880698007204602D00A
:100CA000FFF7E7FF04E000F098F8204600F096F820
:100CB000257720680169C943490717D4C168C9432A
:100CC000490713D46FF004010161022020772068E6
:100CD000806910F4407F204602D0FFF7CAFF04E08D
:100CE00000F07BF8204600F079F82577206801694C
:100CF000C943090716D4C168C943090712D46FF064
:100D000008010161042020772068C069800720461F
:100D100002D0FFF7AEFF04E000F05FF8204600F0DD
:100D20005DF8257720680169C943C90617D4C168F1
:100D3000C943C90613D46FF0100101610820207760
:100D40002068C06910F4407F204602D0FFF791FF71
:100D500004E000F042F8204600F040F825772068D3
:100D60000169C943C90708D1C168C943C90704D18A
:100D7000891E0161204600F033F820680169C943EB
:100D8000090609D4C168C943090605D46FF080017A
:100D900001612046FFF7ECFE20680169C94349065E
:100DA00009D4C168C943490605D46FF04001016107
:100DB000204600F01FF820680169C94389060BD45A
:100DC000C168C943890607D46FF02001016120463C
:100DD000BDE87040FFF7CDBE70BD704770470000A2
:100DE00000680349884202D1012000F00DBD704720
:100DF000001000407047704770B5026804461068E4
:100E0000D168536910F00F0F50D003F0010501F4C1
:100E1000907635435DD0C20705D0CA0503D5E26B95
:100E200042F00102E263420705D5DA0703D0E26B24
:100E300042F00202E263820705D5DA0703D0E26BD3
:100E400042F00402E263020705D5DA0703D0E26B41
:100E500042F00802E263E26B002A33D0800604D538
:100E6000880602D5204600F0FBFA20684069E16B55
:100E7000C0F38010090700D428B3204600F0E2FA3E
:100E80002068416949061AD5416921F04001416154
:100E9000606BA0B11B494163606BFFF795F90028B7
:100EA00010D0606B416BBDE870400847830610D5D9
:100EB0008B060ED52046BDE8704000F0D1BA204622
:100EC000FFF799FF70BD2046FFF795FF0020E06314
:100ED00070BD030606D50B0604D52046BDE870405C
:100EE00000F066BB4006F3D54806F1D5D168204630
:100EF00021F04001D160202184F8391000F041F93F
:100F000070BD00003514000870B5040004D094F8DA
:100F10003900002510B106E0012070BD84F838507A
:100F2000204600F023F8242084F839002068C168A6
:100F300021F40051C160204600F0DEFA206801690A
:100F400021F4904101612068416921F02A01416149
:100F50002068C16841F40051C160E563202084F835
:100F6000390084F83A00002070BD000030B585B02B
:100F70000024009401940294039400681849884264
:100F80002CD11848816941F480418161816901F463
:100F900080410491816941F0040181618069124DB1
:100FA00000F0040004904FF40070009002200190C3
:100FB0000320039069462846FFF79EF92815CDE9DE
:100FC0000004694628460294FFF796F9002211466C
:100FD0002520FFF70BFB2520FFF7FAFA05B030BDFF
:100FE00000380140001002400008014090F83A30FB
:100FF000202B22D1F9B1F2B190F83830012B1CD05E
:1010000081628285C2850021C163222280F83A2054
:1010100080F838100168CA6842F48072CA600168BA
:101020004A6942F001024A610068C16841F020014A
:10103000C160002070470120704702207047000007
:1010400000B50068114991B088421CD1694610A0D2
:1010500000F01AFB12480078AA2802D0BB2806D05C
:101060000CE020210F48FFF748FA0FA004E02021F0
:101070001048FFF742FA10A000F006FB01220849D1
:101080001048FFF7B3FF11B000BD00000038014069
:10109000CAD5B5BDCAFDBEDD3A25730D0A000000F4
:1010A00006000020000C01404C454430B7ADD7AAE3
:1010B00000000000001801404C454431B7ADD7AAEC
:1010C000000000009C0000202DE9F843044690F841
:1010D00039001F4616460D46202850D1A5B19EB1B5
:1010E00094F8380001284AD0012084F838004FF0E5
:1010F0000008C4F83C80212084F83900FFF70AFA80
:10110000A6848146E68426E00120BDE8F883E08CD1
:10111000401EE084A0684B46B0F5805F4FF00002AF
:101120004FF080012046009703D000F072FAE8B932
:101130000DE000F06EFAC8B928882168C0F30800F5
:101140004860206908B16D1C05E0AD1C03E0216812
:1011500015F8010B4860E08C0028D8D14B460022DE
:1011600040212046009700F054FA08B10320CCE754
:10117000202084F8390084F838800020C5E7022058
:10118000C3E77047FEE700002DE9F04385B0002477
:1011900023480094019402940394816941F0400132
:1011A0008161816901F040010491816941F004018C
:1011B0008161816901F004010491816941F00801B4
:1011C00081618069DFF85C8000F0080004900022F3
:1011D00020214046FFF798F9DFF84C9000222021AB
:1011E0004846FFF791F91C2001258DE8310069463A
:1011F0004046FFF781F82026022703970096CDE9A5
:10120000015469464046FFF777F803970096CDE909
:10121000015469464846FFF76FF805B0BDE8F08312
:101220000010024000180140000C01401CB50024D1
:101230000E4800940C49019401604F21C0E901144B
:10124000C7218461C160FFF7B6FC08B1FEF7BAFFA1
:101250000094694605480194FFF78CFC002801D0F2
:10126000FEF7B0FF1CBD0000001000401C00002075
:101270001CB500240F4800940D490194016040F210
:10128000E731C0E9011440F2AF418461C160FFF76A
:1012900092FC08B1FEF796FF009469460548019458
:1012A000FFF768FC002801D0FEF78CFF1CBD000092
:1012B000001400405C0000200C4810B50A49016091
:1012C0004FF4E1314160002181600C22C160C0E92E
:1012D00004128161C161FFF717FE002803D0BDE849
:1012E0001040FEF76FBF10BD003801409C00002089
:1012F000FEE7704770477047FFF712B930B58FB0FF
:1013000028216846FEF737FF14210AA8FEF733FFAD
:101310000121080400240491CDE90010CDE908045E
:101320000294022507956846FFF77EFA0F20CDE963
:101330000A058020CDE90C0400210AA80E94FFF7CD
:1013400087F90FB030BD00000D48016841F0010180
:10135000016041680B4A1140416001680A4A11402E
:101360000160016821F480210160416821F4FE01DF
:1013700041604FF41F0181600449C0030860704759
:10138000001002400000FFF8FFFFF6FE08ED00E04D
:101390000148FFF76FBC00001C0000200148FFF768
:1013A00069BC00005C000020F0B502681C4B1D4DBC
:1013B0001D4E1E4F1E4C4FF0804C984209D0A0424B
:1013C00007D0604505D0A84203D0B04201D0B84252
:1013D00004D122F0700E4A6842EA0E02984209D007
:1013E000A04207D0604505D0A84203D0B04201D04A
:1013F000B84203D122F44075CA682A434D6922F0ED
:1014000080022A4302608A68C2620A688262984245
:1014100001D0A04201D10969016301214161F0BD00
:10142000002C01400004004000080040000C004077
:101430000034014010B5406A0021C185C184FFF726
:10144000DAFC10BD0168CA6822F49072CA600168B3
:101450004A6922F001024A61202180F83A1070475F
:1014600010B590F83A10222901D0022010BD8168F1
:10147000B1F5805F11D00169002901681FD049686A
:1014800001F07F03816A4A1C82620B70C18D491E84
:101490000904090CC18518D02BE00269816A002A71
:1014A0000268526805D0D2B20A80816A491C816202
:1014B000ECE7C2F308020A80816A891CF7E74A68F0
:1014C000816A4B1C83620A70E0E70168CA6822F0F7
:1014D0002002CA600168CA6822F48072CA6001688A
:1014E0004A6922F001024A61202180F83A10FFF790
:1014F000A7FD002010BD00002DE9F0410446006862
:101500000169E26821F44051114301612169A06839
:101510000843616908432168CA6841F20C639A4331
:101520000243CA6020684169A26921F440711143F5
:1015300041611E49206864253226884202D1FFF7A6
:101540002DF901E0FFF71AF900EBC00101EB0011E2
:1015500060686FF018078000B1FBF0F2B2FBF5F2A3
:10156000B1FBF0F37A4303EB8202B1FBF0F306EB3D
:101570000212B2FBF5F2B3FBF5F302F0F00202EB5C
:101580000312B1FBF0F3B1FBF0F0B0FBF5F07843E0
:1015900003EB800006EB0010B0FBF5F0216800F0D3
:1015A0000F0010448860BDE8F08100000038014061
:1015B00090F83910212901D0022070478168B1F5D7
:1015C000805F016A0BD04A1C026202680978516090
:1015D000C18C491E0904090CC1840ED017E009888A
:1015E0000268C1F30801516001690029016A02D053
:1015F000491C0162ECE7891CFBE70168CA6822F01C
:101600008002CA600068C16841F04001C1600020EA
:1016100070472DE9F041984617460E460446069D50
:101620001DE0681C1BD02DB1FEF774FFA0EB080075
:10163000A84214D92068C16821F4D071C160206823
:10164000416921F001014161202084F8390084F8CA
:101650003A00002084F838000320BDE8F0812068BB
:10166000006836EA000004D00020B842D9D000203B
:10167000F3E70120F9E700000148FFF7BDBB0000D8
:101680009C000020FEE700000FB4054B10B503A935
:10169000044A029800F03BF810BC5DF814FB00000F
:1016A000F1170008180000200FB4084B10B504A96A
:1016B00002AA039800F02BF8044602A9002000F0CB
:1016C00091F8204610BC5DF814FB0000E5170008F7
:1016D0000907090E002804DB00F1E02080F800145F
:1016E000704700F00F0000F1E02080F8141D7047F3
:1016F00002E008C8121F08C1002AFAD170477047DB
:10170000002001E001C1121F002AFBD170472DE922
:10171000F84F9946924688460546002706E0252858
:101720000AD051464A4690476D1C7F1C28780028F5
:10173000F5D13846BDE8F88F002315F8011F18468B
:101740002E2915D115F8011F04232A290DD06FF079
:101750002F022978A1F13004092C09D800EB800070
:1017600002EB400008446D1CF3E758F8040B6D1CB5
:101770002A78002ADDD0632A07D0732A0FD01046BA
:1017800051464A4690477F1C2AE018F8042B8DF8F2
:10179000002000218DF801106E46012103E058F869
:1017A000046B4FF0FF315A074FF0000401D409E0F9
:1017B000641C84420BDA8C42FADB325D002AF7D1DA
:1017C00005E0641C8C42FCDB305D0028F9D1274425
:1017D00004E016F8010B51464A469047641EF8D2C1
:1017E0006D1CA3E70A68531C0B6010707047000063
:1017F00004490A685206FCD5024AC1B2121D1160A2
:1018000070470000003801402DE9F041224C234F81
:1018100006460025657010213846FEF769FE88B13E
:1018200008213846FEF764FE60B104213846FEF711
:101830005FFE38B1A088022801D9A0786070E570F9
:10184000A58022E010213846FEF752FE50B1082153
:101850003846FEF74DFE38B104213846FEF748FE03
:1018600020B105E0012002E0022000E00320A0708A
:10187000A078E17888420BD1A188491C89B2A18067
:101880002070002E02D1012900D92570BDE8F08119
:10189000A580E070FAE70000000000200018014079
:1018A00031A394B00FCB0DF1400C8CE80F00FEF784
:1018B0003FFEFFF723FDFFF767FCFFF7FDFCFFF797
:1018C000B5FCFFF7D5FC2C48FFF7C2F92B48FFF712
:1018D000BFF901222A492B48FFF788FB4FF47A749D
:1018E00023460E2210A92748FFF7EEFB264EDFF80D
:1018F0009CA0274FDFF89CB0DFF89C80274D4FF469
:10190000FA793078012803D120215046FEF7F5FD01
:10191000387802280CD128884946884208D3B0FB81
:10192000F1F209FB120018B920215846FEF7E5FD37
:1019300098F800000328E4D12888A042E1D318A138
:101940006846FFF7B1FE2888B0FBF4F104FB1100F4
:101950000028D6D16846FEF719FC82B223466946B4
:101960000848FFF7B1FBCCE748656C6C6F20576FF8
:10197000726C640D0A0000001C0000205C00002056
:10198000060000209C0000200100002000180140FB
:1019900000000020000C0140020000200400002094
:1019A0004B455932B1BBB0B4CFC2B3ACB9FDD2BB19
:1019B000C3EB0D0A00000000000000000000000062
:1019C00001020304060708090000000001020304E5
:1019D000F0190008000000201C000000F0160008AC
:1019E0000C1A00081C000020C404000000170008A6
:1019F00000000000000000000100000010000000D6
:0C1A0000000000000024F40000000000C2
:0400000508000131BD
:00000001FF
